{
  "_format": "hh-sol-artifact-1",
  "contractName": "Project",
  "sourceName": "contracts/Project.sol",
  "abi": [
    {
      "inputs": [
        {
          "internalType": "address",
          "name": "_creator",
          "type": "address"
        },
        {
          "internalType": "uint256",
          "name": "_minimumContribution",
          "type": "uint256"
        },
        {
          "internalType": "uint256",
          "name": "_deadline",
          "type": "uint256"
        },
        {
          "internalType": "uint256",
          "name": "_targetContribution",
          "type": "uint256"
        },
        {
          "internalType": "string",
          "name": "_projectTitle",
          "type": "string"
        },
        {
          "internalType": "string",
          "name": "_projectDes",
          "type": "string"
        }
      ],
      "stateMutability": "nonpayable",
      "type": "constructor"
    },
    {
      "anonymous": false,
      "inputs": [
        {
          "indexed": false,
          "internalType": "uint256",
          "name": "requestId",
          "type": "uint256"
        },
        {
          "indexed": false,
          "internalType": "string",
          "name": "description",
          "type": "string"
        },
        {
          "indexed": false,
          "internalType": "uint256",
          "name": "amount",
          "type": "uint256"
        },
        {
          "indexed": false,
          "internalType": "uint256",
          "name": "noOfVotes",
          "type": "uint256"
        },
        {
          "indexed": false,
          "internalType": "bool",
          "name": "isCompleted",
          "type": "bool"
        },
        {
          "indexed": false,
          "internalType": "address",
          "name": "reciptent",
          "type": "address"
        }
      ],
      "name": "AmountWithdrawSuccessful",
      "type": "event"
    },
    {
      "anonymous": false,
      "inputs": [
        {
          "indexed": false,
          "internalType": "address",
          "name": "contributor",
          "type": "address"
        },
        {
          "indexed": false,
          "internalType": "uint256",
          "name": "amount",
          "type": "uint256"
        },
        {
          "indexed": false,
          "internalType": "uint256",
          "name": "currentTotal",
          "type": "uint256"
        }
      ],
      "name": "FundingReceived",
      "type": "event"
    },
    {
      "anonymous": false,
      "inputs": [
        {
          "indexed": false,
          "internalType": "address",
          "name": "contributor",
          "type": "address"
        },
        {
          "indexed": false,
          "internalType": "uint256",
          "name": "amount",
          "type": "uint256"
        }
      ],
      "name": "RefundRequestSuccessful",
      "type": "event"
    },
    {
      "anonymous": false,
      "inputs": [
        {
          "indexed": false,
          "internalType": "uint256",
          "name": "requestId",
          "type": "uint256"
        },
        {
          "indexed": false,
          "internalType": "string",
          "name": "description",
          "type": "string"
        },
        {
          "indexed": false,
          "internalType": "uint256",
          "name": "amount",
          "type": "uint256"
        },
        {
          "indexed": false,
          "internalType": "uint256",
          "name": "noOfVotes",
          "type": "uint256"
        },
        {
          "indexed": false,
          "internalType": "bool",
          "name": "isCompleted",
          "type": "bool"
        },
        {
          "indexed": false,
          "internalType": "address",
          "name": "reciptent",
          "type": "address"
        },
        {
          "indexed": false,
          "internalType": "string",
          "name": "proofFile",
          "type": "string"
        }
      ],
      "name": "WithdrawRequestCreated",
      "type": "event"
    },
    {
      "anonymous": false,
      "inputs": [
        {
          "indexed": false,
          "internalType": "address",
          "name": "voter",
          "type": "address"
        },
        {
          "indexed": false,
          "internalType": "uint256",
          "name": "totalVote",
          "type": "uint256"
        }
      ],
      "name": "WithdrawVote",
      "type": "event"
    },
    {
      "inputs": [],
      "name": "completeAt",
      "outputs": [
        {
          "internalType": "uint256",
          "name": "",
          "type": "uint256"
        }
      ],
      "stateMutability": "view",
      "type": "function"
    },
    {
      "inputs": [
        {
          "internalType": "address",
          "name": "_contributor",
          "type": "address"
        }
      ],
      "name": "contribute",
      "outputs": [],
      "stateMutability": "payable",
      "type": "function"
    },
    {
      "inputs": [
        {
          "internalType": "uint256",
          "name": "",
          "type": "uint256"
        }
      ],
      "name": "contributiorAddresses",
      "outputs": [
        {
          "internalType": "address",
          "name": "",
          "type": "address"
        }
      ],
      "stateMutability": "view",
      "type": "function"
    },
    {
      "inputs": [
        {
          "internalType": "address",
          "name": "",
          "type": "address"
        }
      ],
      "name": "contributiors",
      "outputs": [
        {
          "internalType": "uint256",
          "name": "",
          "type": "uint256"
        }
      ],
      "stateMutability": "view",
      "type": "function"
    },
    {
      "inputs": [
        {
          "internalType": "string",
          "name": "_description",
          "type": "string"
        },
        {
          "internalType": "uint256",
          "name": "_amount",
          "type": "uint256"
        },
        {
          "internalType": "address payable",
          "name": "_reciptent",
          "type": "address"
        },
        {
          "internalType": "string",
          "name": "_proofFile",
          "type": "string"
        }
      ],
      "name": "createWithdrawRequest",
      "outputs": [],
      "stateMutability": "nonpayable",
      "type": "function"
    },
    {
      "inputs": [],
      "name": "creator",
      "outputs": [
        {
          "internalType": "address payable",
          "name": "",
          "type": "address"
        }
      ],
      "stateMutability": "view",
      "type": "function"
    },
    {
      "inputs": [],
      "name": "deadline",
      "outputs": [
        {
          "internalType": "uint256",
          "name": "",
          "type": "uint256"
        }
      ],
      "stateMutability": "view",
      "type": "function"
    },
    {
      "inputs": [],
      "name": "getAllContributorAddress",
      "outputs": [
        {
          "internalType": "address[]",
          "name": "",
          "type": "address[]"
        }
      ],
      "stateMutability": "view",
      "type": "function"
    },
    {
      "inputs": [],
      "name": "getContractBalance",
      "outputs": [
        {
          "internalType": "uint256",
          "name": "",
          "type": "uint256"
        }
      ],
      "stateMutability": "view",
      "type": "function"
    },
    {
      "inputs": [],
      "name": "getProjectDetails",
      "outputs": [
        {
          "internalType": "address payable",
          "name": "projectStarter",
          "type": "address"
        },
        {
          "internalType": "uint256",
          "name": "minContribution",
          "type": "uint256"
        },
        {
          "internalType": "uint256",
          "name": "projectDeadline",
          "type": "uint256"
        },
        {
          "internalType": "uint256",
          "name": "goalAmount",
          "type": "uint256"
        },
        {
          "internalType": "uint256",
          "name": "completedTime",
          "type": "uint256"
        },
        {
          "internalType": "uint256",
          "name": "currentAmount",
          "type": "uint256"
        },
        {
          "internalType": "string",
          "name": "title",
          "type": "string"
        },
        {
          "internalType": "string",
          "name": "desc",
          "type": "string"
        },
        {
          "internalType": "enum Project.State",
          "name": "currentState",
          "type": "uint8"
        },
        {
          "internalType": "uint256",
          "name": "balance",
          "type": "uint256"
        }
      ],
      "stateMutability": "view",
      "type": "function"
    },
    {
      "inputs": [],
      "name": "minimumContribution",
      "outputs": [
        {
          "internalType": "uint256",
          "name": "",
          "type": "uint256"
        }
      ],
      "stateMutability": "view",
      "type": "function"
    },
    {
      "inputs": [],
      "name": "noOfContributers",
      "outputs": [
        {
          "internalType": "uint256",
          "name": "",
          "type": "uint256"
        }
      ],
      "stateMutability": "view",
      "type": "function"
    },
    {
      "inputs": [],
      "name": "numOfWithdrawRequests",
      "outputs": [
        {
          "internalType": "uint256",
          "name": "",
          "type": "uint256"
        }
      ],
      "stateMutability": "view",
      "type": "function"
    },
    {
      "inputs": [],
      "name": "projectDes",
      "outputs": [
        {
          "internalType": "string",
          "name": "",
          "type": "string"
        }
      ],
      "stateMutability": "view",
      "type": "function"
    },
    {
      "inputs": [],
      "name": "projectTitle",
      "outputs": [
        {
          "internalType": "string",
          "name": "",
          "type": "string"
        }
      ],
      "stateMutability": "view",
      "type": "function"
    },
    {
      "inputs": [],
      "name": "raisedAmount",
      "outputs": [
        {
          "internalType": "uint256",
          "name": "",
          "type": "uint256"
        }
      ],
      "stateMutability": "view",
      "type": "function"
    },
    {
      "inputs": [],
      "name": "requestRefund",
      "outputs": [],
      "stateMutability": "nonpayable",
      "type": "function"
    },
    {
      "inputs": [],
      "name": "state",
      "outputs": [
        {
          "internalType": "enum Project.State",
          "name": "",
          "type": "uint8"
        }
      ],
      "stateMutability": "view",
      "type": "function"
    },
    {
      "inputs": [],
      "name": "targetContribution",
      "outputs": [
        {
          "internalType": "uint256",
          "name": "",
          "type": "uint256"
        }
      ],
      "stateMutability": "view",
      "type": "function"
    },
    {
      "inputs": [
        {
          "internalType": "uint256",
          "name": "_requestId",
          "type": "uint256"
        }
      ],
      "name": "voteWithdrawRequest",
      "outputs": [],
      "stateMutability": "nonpayable",
      "type": "function"
    },
    {
      "inputs": [
        {
          "internalType": "uint256",
          "name": "_requestId",
          "type": "uint256"
        }
      ],
      "name": "withdrawRequestedAmount",
      "outputs": [],
      "stateMutability": "nonpayable",
      "type": "function"
    },
    {
      "inputs": [
        {
          "internalType": "uint256",
          "name": "",
          "type": "uint256"
        }
      ],
      "name": "withdrawRequests",
      "outputs": [
        {
          "internalType": "string",
          "name": "description",
          "type": "string"
        },
        {
          "internalType": "uint256",
          "name": "amount",
          "type": "uint256"
        },
        {
          "internalType": "uint256",
          "name": "noOfVotes",
          "type": "uint256"
        },
        {
          "internalType": "bool",
          "name": "isCompleted",
          "type": "bool"
        },
        {
          "internalType": "address payable",
          "name": "reciptent",
          "type": "address"
        },
        {
          "internalType": "string",
          "name": "proofFile",
          "type": "string"
        }
      ],
      "stateMutability": "view",
      "type": "function"
    }
  ],
  "bytecode": "0x60806040526000600960006101000a81548160ff0219169083600281111562000051577f4e487b7100000000000000000000000000000000000000000000000000000000600052602160045260246000fd5b02179055506000600d553480156200006857600080fd5b5060405162002e3338038062002e3383398181016040528101906200008e919062000279565b856000806101000a81548173ffffffffffffffffffffffffffffffffffffffff021916908373ffffffffffffffffffffffffffffffffffffffff1602179055508460018190555083600281905550826003819055508160079080519060200190620000fb92919062000129565b5080600890805190602001906200011492919062000129565b50600060058190555050505050505062000523565b828054620001379062000414565b90600052602060002090601f0160209004810192826200015b5760008555620001a7565b82601f106200017657805160ff1916838001178555620001a7565b82800160010185558215620001a7579182015b82811115620001a657825182559160200191906001019062000189565b5b509050620001b69190620001ba565b5090565b5b80821115620001d5576000816000905550600101620001bb565b5090565b6000620001f0620001ea846200036a565b62000341565b9050828152602081018484840111156200020957600080fd5b62000216848285620003de565b509392505050565b6000815190506200022f81620004ef565b92915050565b600082601f8301126200024757600080fd5b815162000259848260208601620001d9565b91505092915050565b600081519050620002738162000509565b92915050565b60008060008060008060c087890312156200029357600080fd5b6000620002a389828a016200021e565b9650506020620002b689828a0162000262565b9550506040620002c989828a0162000262565b9450506060620002dc89828a0162000262565b935050608087015167ffffffffffffffff811115620002fa57600080fd5b6200030889828a0162000235565b92505060a087015167ffffffffffffffff8111156200032657600080fd5b6200033489828a0162000235565b9150509295509295509295565b60006200034d62000360565b90506200035b82826200044a565b919050565b6000604051905090565b600067ffffffffffffffff821115620003885762000387620004af565b5b6200039382620004de565b9050602081019050919050565b6000620003ad82620003b4565b9050919050565b600073ffffffffffffffffffffffffffffffffffffffff82169050919050565b6000819050919050565b60005b83811015620003fe578082015181840152602081019050620003e1565b838111156200040e576000848401525b50505050565b600060028204905060018216806200042d57607f821691505b6020821081141562000444576200044362000480565b5b50919050565b6200045582620004de565b810181811067ffffffffffffffff82111715620004775762000476620004af565b5b80604052505050565b7f4e487b7100000000000000000000000000000000000000000000000000000000600052602260045260246000fd5b7f4e487b7100000000000000000000000000000000000000000000000000000000600052604160045260246000fd5b6000601f19601f8301169050919050565b620004fa81620003a0565b81146200050657600080fd5b50565b6200051481620003d4565b81146200052057600080fd5b50565b61290080620005336000396000f3fe6080604052600436106101355760003560e01c8063937e09b1116100ab578063b82c86d61161006f578063b82c86d614610410578063c19d93fb1461043b578063c3e20c9f14610466578063c59ee1dc14610491578063d5cef133146104bc578063ff3a9c7e146104d357610135565b8063937e09b114610324578063939b09851461034f578063992a7dfb1461037a578063a1ca3ee3146103bc578063b40141bf146103e557610135565b806329dcb0cf116100fd57806329dcb0cf146102355780634c4cea5a146102605780634e695a371461028b5780636f9fb98a146102b457806373e888fd146102df578063752e19f9146102fb57610135565b806302d05d3f1461013a57806303c29d58146101655780630a771370146101905780630fbaf1a2146101cd57806324274ee91461020a575b600080fd5b34801561014657600080fd5b5061014f610507565b60405161015c9190611e3a565b60405180910390f35b34801561017157600080fd5b5061017a61052b565b6040516101879190611f9c565b60405180910390f35b34801561019c57600080fd5b506101b760048036038101906101b29190611a35565b6105b9565b6040516101c4919061216d565b60405180910390f35b3480156101d957600080fd5b506101f460048036038101906101ef9190611af1565b6105d1565b6040516102019190611e1f565b60405180910390f35b34801561021657600080fd5b5061021f610604565b60405161022c919061216d565b60405180910390f35b34801561024157600080fd5b5061024a61060a565b604051610257919061216d565b60405180910390f35b34801561026c57600080fd5b50610275610610565b604051610282919061216d565b60405180910390f35b34801561029757600080fd5b506102b260048036038101906102ad9190611af1565b610616565b005b3480156102c057600080fd5b506102c96107fb565b6040516102d6919061216d565b60405180910390f35b6102f960048036038101906102f49190611a35565b610803565b005b34801561030757600080fd5b50610322600480360381019061031d9190611af1565b610abc565b005b34801561033057600080fd5b50610339610e17565b604051610346919061216d565b60405180910390f35b34801561035b57600080fd5b50610364610e1d565b6040516103719190611f5f565b60405180910390f35b34801561038657600080fd5b506103a1600480360381019061039c9190611af1565b610f63565b6040516103b396959493929190611fbe565b60405180910390f35b3480156103c857600080fd5b506103e360048036038101906103de9190611a5e565b6110dc565b005b3480156103f157600080fd5b506103fa611395565b604051610407919061216d565b60405180910390f35b34801561041c57600080fd5b5061042561139b565b604051610432919061216d565b60405180910390f35b34801561044757600080fd5b506104506113a1565b60405161045d9190611f81565b60405180910390f35b34801561047257600080fd5b5061047b6113b4565b6040516104889190611f9c565b60405180910390f35b34801561049d57600080fd5b506104a6611442565b6040516104b3919061216d565b60405180910390f35b3480156104c857600080fd5b506104d1611448565b005b3480156104df57600080fd5b506104e861169e565b6040516104fe9a99989796959493929190611e55565b60405180910390f35b60008054906101000a900473ffffffffffffffffffffffffffffffffffffffff1681565b60088054610538906124bd565b80601f0160208091040260200160405190810160405280929190818152602001828054610564906124bd565b80156105b15780601f10610586576101008083540402835291602001916105b1565b820191906000526020600020905b81548152906001019060200180831161059457829003601f168201915b505050505081565b600a6020528060005260406000206000915090505481565b600b6020528060005260406000206000915054906101000a900473ffffffffffffffffffffffffffffffffffffffff1681565b60065481565b60025481565b60045481565b6000600a60003373ffffffffffffffffffffffffffffffffffffffff1673ffffffffffffffffffffffffffffffffffffffff1681526020019081526020016000205411610698576040517f08c379a000000000000000000000000000000000000000000000000000000000815260040161068f9061202d565b60405180910390fd5b6000600c60008381526020019081526020016000209050600015158160030160003373ffffffffffffffffffffffffffffffffffffffff1673ffffffffffffffffffffffffffffffffffffffff16815260200190815260200160002060009054906101000a900460ff16151514610744576040517f08c379a000000000000000000000000000000000000000000000000000000000815260040161073b9061208d565b60405180910390fd5b60018160030160003373ffffffffffffffffffffffffffffffffffffffff1673ffffffffffffffffffffffffffffffffffffffff16815260200190815260200160002060006101000a81548160ff02191690831515021790555060018160020160008282546107b3919061232d565b925050819055507fa2925e4595bf873fa82c22a1a89809777347023bf2b502d32710157a5eb8199c3382600201546040516107ef929190611eff565b60405180910390a15050565b600047905090565b600080600281111561083e577f4e487b7100000000000000000000000000000000000000000000000000000000600052602160045260246000fd5b600960009054906101000a900460ff166002811115610886577f4e487b7100000000000000000000000000000000000000000000000000000000600052602160045260246000fd5b146108c6576040517f08c379a00000000000000000000000000000000000000000000000000000000081526004016108bd906120ed565b60405180910390fd5b600254421061090a576040517f08c379a0000000000000000000000000000000000000000000000000000000008152600401610901906120cd565b60405180910390fd5b60015434101561094f576040517f08c379a00000000000000000000000000000000000000000000000000000000081526004016109469061210d565b60405180910390fd5b6000600a60008473ffffffffffffffffffffffffffffffffffffffff1673ffffffffffffffffffffffffffffffffffffffff168152602001908152602001600020541415610a045781600b6000600654815260200190815260200160002060006101000a81548173ffffffffffffffffffffffffffffffffffffffff021916908373ffffffffffffffffffffffffffffffffffffffff160217905550600660008154809291906109fe90612520565b91905055505b34600a60008473ffffffffffffffffffffffffffffffffffffffff1673ffffffffffffffffffffffffffffffffffffffff1681526020019081526020016000206000828254610a53919061232d565b925050819055503460056000828254610a6c919061232d565b925050819055507f5cdc4ab8d637538ead6cc1904d4160343656c8c82bd266635cfd31ac008fffe08234600554604051610aa893929190611f28565b60405180910390a1610ab8611824565b5050565b60008054906101000a900473ffffffffffffffffffffffffffffffffffffffff1673ffffffffffffffffffffffffffffffffffffffff163373ffffffffffffffffffffffffffffffffffffffff1614610b4a576040517f08c379a0000000000000000000000000000000000000000000000000000000008152600401610b419061206d565b60405180910390fd5b6002806002811115610b85577f4e487b7100000000000000000000000000000000000000000000000000000000600052602160045260246000fd5b600960009054906101000a900460ff166002811115610bcd577f4e487b7100000000000000000000000000000000000000000000000000000000600052602160045260246000fd5b14610c0d576040517f08c379a0000000000000000000000000000000000000000000000000000000008152600401610c04906120ed565b60405180910390fd5b6002544210610c51576040517f08c379a0000000000000000000000000000000000000000000000000000000008152600401610c48906120cd565b60405180910390fd5b6000600c60008481526020019081526020016000209050600015158160040160009054906101000a900460ff16151514610cc0576040517f08c379a0000000000000000000000000000000000000000000000000000000008152600401610cb79061212d565b60405180910390fd5b6002600654610ccf9190612383565b81600201541015610d15576040517f08c379a0000000000000000000000000000000000000000000000000000000008152600401610d0c9061214d565b60405180910390fd5b8060040160019054906101000a900473ffffffffffffffffffffffffffffffffffffffff1673ffffffffffffffffffffffffffffffffffffffff166108fc82600101549081150290604051600060405180830381858888f19350505050158015610d83573d6000803e3d6000fd5b5060018160040160006101000a81548160ff0219169083151502179055507f2af8d60b878c5e8de57c8ff96e03c6cfab6de26b47e989757345cc1dceaac99883826000018360010154846002015460018660040160019054906101000a900473ffffffffffffffffffffffffffffffffffffffff16604051610e0a96959493929190612205565b60405180910390a1505050565b60015481565b6060600060065467ffffffffffffffff811115610e63577f4e487b7100000000000000000000000000000000000000000000000000000000600052604160045260246000fd5b604051908082528060200260200182016040528015610e915781602001602082028036833780820191505090505b50905060005b600654811015610f5b57600b600082815260200190815260200160002060009054906101000a900473ffffffffffffffffffffffffffffffffffffffff16828281518110610f0e577f4e487b7100000000000000000000000000000000000000000000000000000000600052603260045260246000fd5b602002602001019073ffffffffffffffffffffffffffffffffffffffff16908173ffffffffffffffffffffffffffffffffffffffff16815250508080610f5390612520565b915050610e97565b508091505090565b600c602052806000526040600020600091509050806000018054610f86906124bd565b80601f0160208091040260200160405190810160405280929190818152602001828054610fb2906124bd565b8015610fff5780601f10610fd457610100808354040283529160200191610fff565b820191906000526020600020905b815481529060010190602001808311610fe257829003601f168201915b5050505050908060010154908060020154908060040160009054906101000a900460ff16908060040160019054906101000a900473ffffffffffffffffffffffffffffffffffffffff1690806005018054611059906124bd565b80601f0160208091040260200160405190810160405280929190818152602001828054611085906124bd565b80156110d25780601f106110a7576101008083540402835291602001916110d2565b820191906000526020600020905b8154815290600101906020018083116110b557829003601f168201915b5050505050905086565b60008054906101000a900473ffffffffffffffffffffffffffffffffffffffff1673ffffffffffffffffffffffffffffffffffffffff163373ffffffffffffffffffffffffffffffffffffffff161461116a576040517f08c379a00000000000000000000000000000000000000000000000000000000081526004016111619061206d565b60405180910390fd5b60028060028111156111a5577f4e487b7100000000000000000000000000000000000000000000000000000000600052602160045260246000fd5b600960009054906101000a900460ff1660028111156111ed577f4e487b7100000000000000000000000000000000000000000000000000000000600052602160045260246000fd5b1461122d576040517f08c379a0000000000000000000000000000000000000000000000000000000008152600401611224906120ed565b60405180910390fd5b6002544210611271576040517f08c379a0000000000000000000000000000000000000000000000000000000008152600401611268906120cd565b60405180910390fd5b6000600c6000600d5481526020019081526020016000209050858160000190805190602001906112a29291906118eb565b508481600101819055506000816002018190555060008160040160006101000a81548160ff021916908315150217905550838160040160016101000a81548173ffffffffffffffffffffffffffffffffffffffff021916908373ffffffffffffffffffffffffffffffffffffffff1602179055508281600501908051906020019061132e9291906118eb565b50600d600081548092919061134290612520565b91905055507ff44280495878118f97936da0d8a079fb5b3872d7962fd962c3b74d07bed37662600d54878760008089896040516113859796959493929190612188565b60405180910390a1505050505050565b600d5481565b60035481565b600960009054906101000a900460ff1681565b600780546113c1906124bd565b80601f01602080910402602001604051908101604052809291908181526020018280546113ed906124bd565b801561143a5780601f1061140f5761010080835404028352916020019161143a565b820191906000526020600020905b81548152906001019060200180831161141d57829003601f168201915b505050505081565b60055481565b60016002811115611482577f4e487b7100000000000000000000000000000000000000000000000000000000600052602160045260246000fd5b600960009054906101000a900460ff1660028111156114ca577f4e487b7100000000000000000000000000000000000000000000000000000000600052602160045260246000fd5b1461150a576040517f08c379a0000000000000000000000000000000000000000000000000000000008152600401611501906120ad565b60405180910390fd5b6000600a60003373ffffffffffffffffffffffffffffffffffffffff1673ffffffffffffffffffffffffffffffffffffffff168152602001908152602001600020541161158c576040517f08c379a00000000000000000000000000000000000000000000000000000000081526004016115839061204d565b60405180910390fd5b60003390506000600a60003373ffffffffffffffffffffffffffffffffffffffff1673ffffffffffffffffffffffffffffffffffffffff1681526020019081526020016000205490508173ffffffffffffffffffffffffffffffffffffffff166108fc829081150290604051600060405180830381858888f1935050505015801561161b573d6000803e3d6000fd5b506000600a60003373ffffffffffffffffffffffffffffffffffffffff1673ffffffffffffffffffffffffffffffffffffffff168152602001908152602001600020819055507f8a1f055396d85fd52c3005c66f7b71b06c4c2d2fa544c3dd1e8e89cdfcdb46b53382604051611692929190611eff565b60405180910390a15050565b60008060008060008060608060008060008054906101000a900473ffffffffffffffffffffffffffffffffffffffff16995060015498506002549750600354965060045495506005549450600780546116f6906124bd565b80601f0160208091040260200160405190810160405280929190818152602001828054611722906124bd565b801561176f5780601f106117445761010080835404028352916020019161176f565b820191906000526020600020905b81548152906001019060200180831161175257829003601f168201915b5050505050935060088054611783906124bd565b80601f01602080910402602001604051908101604052809291908181526020018280546117af906124bd565b80156117fc5780601f106117d1576101008083540402835291602001916117fc565b820191906000526020600020905b8154815290600101906020018083116117df57829003601f168201915b50505050509250600960009054906101000a900460ff16915047905090919293949596979899565b60035460055410611885576002600960006101000a81548160ff0219169083600281111561187b577f4e487b7100000000000000000000000000000000000000000000000000000000600052602160045260246000fd5b02179055506118e2565b6002544211156118e1576001600960006101000a81548160ff021916908360028111156118db577f4e487b7100000000000000000000000000000000000000000000000000000000600052602160045260246000fd5b02179055505b5b42600481905550565b8280546118f7906124bd565b90600052602060002090601f0160209004810192826119195760008555611960565b82601f1061193257805160ff1916838001178555611960565b82800160010185558215611960579182015b8281111561195f578251825591602001919060010190611944565b5b50905061196d9190611971565b5090565b5b8082111561198a576000816000905550600101611972565b5090565b60006119a161199c84612292565b61226d565b9050828152602081018484840111156119b957600080fd5b6119c484828561247b565b509392505050565b6000813590506119db81612885565b92915050565b6000813590506119f08161289c565b92915050565b600082601f830112611a0757600080fd5b8135611a1784826020860161198e565b91505092915050565b600081359050611a2f816128b3565b92915050565b600060208284031215611a4757600080fd5b6000611a55848285016119cc565b91505092915050565b60008060008060808587031215611a7457600080fd5b600085013567ffffffffffffffff811115611a8e57600080fd5b611a9a878288016119f6565b9450506020611aab87828801611a20565b9350506040611abc878288016119e1565b925050606085013567ffffffffffffffff811115611ad957600080fd5b611ae5878288016119f6565b91505092959194509250565b600060208284031215611b0357600080fd5b6000611b1184828501611a20565b91505092915050565b6000611b268383611b50565b60208301905092915050565b611b3b81612421565b82525050565b611b4a816123c6565b82525050565b611b59816123b4565b82525050565b611b68816123b4565b82525050565b6000611b79826122e8565b611b83818561230b565b9350611b8e836122c3565b8060005b83811015611bbf578151611ba68882611b1a565b9750611bb1836122fe565b925050600181019050611b92565b5085935050505092915050565b611bd5816123d8565b82525050565b611be481612433565b82525050565b611bf381612445565b82525050565b6000611c04826122f3565b611c0e818561231c565b9350611c1e81856020860161248a565b611c2781612654565b840191505092915050565b60008154611c3f816124bd565b611c49818661231c565b94506001821660008114611c645760018114611c7657611ca9565b60ff1983168652602086019350611ca9565b611c7f856122d3565b60005b83811015611ca157815481890152600182019150602081019050611c82565b808801955050505b50505092915050565b6000611cbf601b8361231c565b9150611cca82612665565b602082019050919050565b6000611ce260268361231c565b9150611ced8261268e565b604082019050919050565b6000611d0560308361231c565b9150611d10826126dd565b604082019050919050565b6000611d2860138361231c565b9150611d338261272c565b602082019050919050565b6000611d4b600b8361231c565b9150611d5682612755565b602082019050919050565b6000611d6e60158361231c565b9150611d798261277e565b602082019050919050565b6000611d91600d8361231c565b9150611d9c826127a7565b602082019050919050565b6000611db460208361231c565b9150611dbf826127d0565b602082019050919050565b6000611dd760198361231c565b9150611de2826127f9565b602082019050919050565b6000611dfa60368361231c565b9150611e0582612822565b604082019050919050565b611e1981612417565b82525050565b6000602082019050611e346000830184611b5f565b92915050565b6000602082019050611e4f6000830184611b41565b92915050565b600061014082019050611e6b600083018d611b41565b611e78602083018c611e10565b611e85604083018b611e10565b611e92606083018a611e10565b611e9f6080830189611e10565b611eac60a0830188611e10565b81810360c0830152611ebe8187611bf9565b905081810360e0830152611ed28186611bf9565b9050611ee2610100830185611bdb565b611ef0610120830184611e10565b9b9a5050505050505050505050565b6000604082019050611f146000830185611b5f565b611f216020830184611e10565b9392505050565b6000606082019050611f3d6000830186611b5f565b611f4a6020830185611e10565b611f576040830184611e10565b949350505050565b60006020820190508181036000830152611f798184611b6e565b905092915050565b6000602082019050611f966000830184611bdb565b92915050565b60006020820190508181036000830152611fb68184611bf9565b905092915050565b600060c0820190508181036000830152611fd88189611bf9565b9050611fe76020830188611e10565b611ff46040830187611e10565b6120016060830186611bcc565b61200e6080830185611b41565b81810360a08301526120208184611bf9565b9050979650505050505050565b6000602082019050818103600083015261204681611cb2565b9050919050565b6000602082019050818103600083015261206681611cd5565b9050919050565b6000602082019050818103600083015261208681611cf8565b9050919050565b600060208201905081810360008301526120a681611d1b565b9050919050565b600060208201905081810360008301526120c681611d3e565b9050919050565b600060208201905081810360008301526120e681611d61565b9050919050565b6000602082019050818103600083015261210681611d84565b9050919050565b6000602082019050818103600083015261212681611da7565b9050919050565b6000602082019050818103600083015261214681611dca565b9050919050565b6000602082019050818103600083015261216681611ded565b9050919050565b60006020820190506121826000830184611e10565b92915050565b600060e08201905061219d600083018a611e10565b81810360208301526121af8189611bf9565b90506121be6040830188611e10565b6121cb6060830187611bea565b6121d86080830186611bcc565b6121e560a0830185611b32565b81810360c08301526121f78184611bf9565b905098975050505050505050565b600060c08201905061221a6000830189611e10565b818103602083015261222c8188611c32565b905061223b6040830187611e10565b6122486060830186611e10565b6122556080830185611bcc565b61226260a0830184611b32565b979650505050505050565b6000612277612288565b905061228382826124ef565b919050565b6000604051905090565b600067ffffffffffffffff8211156122ad576122ac612625565b5b6122b682612654565b9050602081019050919050565b6000819050602082019050919050565b60008190508160005260206000209050919050565b600081519050919050565b600081519050919050565b6000602082019050919050565b600082825260208201905092915050565b600082825260208201905092915050565b600061233882612417565b915061234383612417565b9250827fffffffffffffffffffffffffffffffffffffffffffffffffffffffffffffffff0382111561237857612377612569565b5b828201905092915050565b600061238e82612417565b915061239983612417565b9250826123a9576123a8612598565b5b828204905092915050565b60006123bf826123f7565b9050919050565b60006123d1826123f7565b9050919050565b60008115159050919050565b60008190506123f282612871565b919050565b600073ffffffffffffffffffffffffffffffffffffffff82169050919050565b6000819050919050565b600061242c82612457565b9050919050565b600061243e826123e4565b9050919050565b600061245082612417565b9050919050565b600061246282612469565b9050919050565b6000612474826123f7565b9050919050565b82818337600083830152505050565b60005b838110156124a857808201518184015260208101905061248d565b838111156124b7576000848401525b50505050565b600060028204905060018216806124d557607f821691505b602082108114156124e9576124e86125f6565b5b50919050565b6124f882612654565b810181811067ffffffffffffffff8211171561251757612516612625565b5b80604052505050565b600061252b82612417565b91507fffffffffffffffffffffffffffffffffffffffffffffffffffffffffffffffff82141561255e5761255d612569565b5b600182019050919050565b7f4e487b7100000000000000000000000000000000000000000000000000000000600052601160045260246000fd5b7f4e487b7100000000000000000000000000000000000000000000000000000000600052601260045260246000fd5b7f4e487b7100000000000000000000000000000000000000000000000000000000600052602160045260246000fd5b7f4e487b7100000000000000000000000000000000000000000000000000000000600052602260045260246000fd5b7f4e487b7100000000000000000000000000000000000000000000000000000000600052604160045260246000fd5b6000601f19601f8301169050919050565b7f4f6e6c7920636f6e7472696275746f722063616e20766f746520210000000000600082015250565b7f596f7520646f6e74206861766520616e7920636f6e747269627574656420616d60008201527f6f756e7420210000000000000000000000000000000000000000000000000000602082015250565b7f596f7520646f6e7420686176652061636365737320746f20706572666f726d2060008201527f74686973206f7065726174696f6e202100000000000000000000000000000000602082015250565b7f596f7520616c726561647920766f746564202100000000000000000000000000600082015250565b7f4e6f742045787069726564000000000000000000000000000000000000000000600082015250565b7f446561646c696e65206861732070617373656420210000000000000000000000600082015250565b7f496e76616c696420737461746500000000000000000000000000000000000000600082015250565b7f436f6e747269627574696f6e20616d6f756e7420697320746f6f206c6f772021600082015250565b7f5265717565737420616c726561647920636f6d706c6574656400000000000000600082015250565b7f4174206c656173742035302520636f6e7472696275746f72206e65656420746f60008201527f20766f746520666f722074686973207265717565737400000000000000000000602082015250565b60038110612882576128816125c7565b5b50565b61288e816123b4565b811461289957600080fd5b50565b6128a5816123c6565b81146128b057600080fd5b50565b6128bc81612417565b81146128c757600080fd5b5056fea2646970667358221220414d96e53f1cd413cd71f3014c196922bb69c49eac3bfc7c4ee7ac12ea50bf5764736f6c63430008040033",
  "linkReferences": {},
  "deployedLinkReferences": {}
}